:100000000C942A000C9449000C9447000C9447006F
:100010000C9447000C9447000C9447000C94470044
:100020000C946E000C9447000C9447000C9447000D
:100030000C9447000C9447000C9447000C94470024
:100040000C9447000C9447000C9447000C94470014
:100050000C94470011241FBECFE5D4E0DEBFCDBF16
:1000600013E0A0E6B0E0E8EEFDE102C005900D92DD
:10007000A235B107D9F713E0A2E5B3E001C01D92A4
:10008000A335B107E1F70E94EC060C94F20E0C9434
:1000900000001F920F920FB60F9211242F933F93DF
:1000A0008F939F93EF93FF93DF93CF93CDB7DEB7FB
:1000B00082E390E022E330E0F90120812E7FFC0111
:1000C0002083CF91DF91FF91EF919F918F913F918D
:1000D0002F910F900FBE0F901F9018951F920F92A7
:1000E0000FB60F9211242F938F939F93EF93FF934B
:1000F000DF93CF93CDB7DEB78DE490E021EEFC0126
:1001000020838CE490E02BE7FC0120838091600049
:10011000882321F4809161008823A9F080916000F8
:10012000815080936000809160008C3360F08BE39D
:100130008093600080916100882329F080916100A4
:10014000815080936100CF91DF91FF91EF919F915A
:100150008F912F910F900FBE0F901F901895DF93E6
:10016000CF93CDB7DEB78EE490E0FC0110828DE432
:1001700090E021EEFC0120838CE490E02BE7FC0171
:1001800020838FE490E0FC0110828EE490E025E073
:10019000FC01208385E590E0FC0110828BE590E076
:1001A000FC01108289E590E0FC011082CF91DF9183
:1001B0000895DF93CF9300D000D000D0CDB7DEB745
:1001C0009E838D838D819E819A83898313C08EE661
:1001D00090E09C838B8305C08B819C8101979C83DD
:1001E0008B838B819C810097B9F789819A810197D4
:1001F0009A83898389819A81009749F726960FB659
:10020000F894DEBF0FBECDBFCF91DF910895DF938D
:10021000CF9300D0CDB7DEB79A83898389819A8145
:1002200001979A83898389819A810097B9F70F9002
:100230000F90CF91DF910895DF93CF930F92CDB7B9
:10024000DEB7898382E390E022E330E0F901208188
:100250002F77FC01208382E390E022E330E0F90174
:1002600020812F7DFC01208382E390E022E330E0B7
:10027000F90120812F7BFC01208381E090E00E9426
:10028000070188E390E02981FC01208382E390E06C
:1002900022E330E0F90120812068FC01208384E022
:1002A00090E00E94070182E390E022E330E0F90150
:1002B00020812F77FC01208381E090E00E940701DC
:1002C0000F90CF91DF910895DF93CF930F92CDB729
:1002D000DEB7898382E390E022E330E0F9012081F8
:1002E0002F77FC01208382E390E022E330E0F901E4
:1002F00020812062FC01208382E390E022E330E051
:10030000F90120812F7BFC01208382E090E00E9494
:10031000070188E390E02981FC01208382E390E0DB
:1003200022E330E0F90120812068FC01208384E091
:1003300090E00E94070182E390E022E330E0F901BF
:1003400020812F77FC01208382E090E00E9407014A
:100350000F90CF91DF910895DF93CF93CDB7DEB7A4
:1003600088E10E941C0181E090E00E94D90088E1B0
:100370000E941C0181E090E00E94D90080E30E946D
:100380001C0181E090E00E94D90081E00E941C01E4
:1003900081E090E00E94D90085E00E941C0181E08C
:1003A00090E00E94D900CF91DF910895DF93CF9321
:1003B00000D00F92CDB7DEB78A836B8384E30E94AF
:1003C0001C0186E30E941C0119822BC08B81282FFF
:1003D00030E08981882F90E0820F931F8032910551
:1003E0005CF49B818981890F80680E941C018A814D
:1003F00080680E941C010CC09B818981890F8052FA
:1004000080680E941C018A81885F80680E941C01AC
:1004100080E00E94640180E00E94640189818F5F16
:1004200089838981803190F286E30E941C0180E3F8
:100430000E941C010F900F900F90CF91DF910895B3
:100440000F93DF93CF93CDB7DEB729970FB6F8940C
:10045000DEBF0FBECDBF8C836D834E8338872F8365
:1004600009878E81882F90E0880F991F8295929539
:10047000907F9827807F98279A83898384E30E94BE
:100480001C0186E30E941C011B826DC08D81282FF8
:1004900030E08B81882F90E0820F931F803291058E
:1004A0005CF49D818B81890F80680E941C018C8186
:1004B00080680E941C010CC09D818B81890F805235
:1004C00080680E941C018C81885F80680E941C01EA
:1004D0008985813009F52F81388589819A81820F3C
:1004E000931FFC01208189819A8101969A838983D7
:1004F000822F0E9464012F81388589819A81820F21
:10050000931FFC01208189819A8101969A838983B6
:10051000822F0E94640124C02F81388589819A81AD
:10052000820F931FFC018081282F209589819A8159
:1005300001969A838983822F0E9464012F813885D6
:1005400089819A81820F931FFC018081282F209539
:1005500089819A8101969A838983822F0E946401FE
:100560008B818F5F8B838B81803108F48FCF86E303
:100570000E941C0180E30E941C0129960FB6F8948A
:10058000DEBF0FBECDBFCF91DF910F9108950F93C6
:10059000DF93CF9300D000D000D0CDB7DEB78B83F0
:1005A0006C834D832E838D819AE0692F0E94AF0E5C
:1005B00089838D819AE0692F0E94AF0E892F8A83EB
:1005C00029EC30E08B816C8149810E810E942002F0
:1005D0008B818F5F29EC30E06C814A810E810E9413
:1005E00020028981882F90E026960FB6F894DEBF0E
:1005F0000FBECDBFCF91DF910F910895DF93CF93C1
:100600000F92CDB7DEB783E390E0FC018081898350
:10061000898180936500809166009981892389830F
:1006200089818093670080916800898389818095A2
:1006300089838091670099818923898390916900DA
:100640008981892B8093690080916700809368007D
:1006500080916500809366000F90CF91DF9108959F
:10066000DF93CF93CDB7DEB785E590E02AE0FC01BC
:1006700020838BE590E020E4FC012083CF91DF9183
:1006800008950F93DF93CF930F92CDB7DEB781E03C
:1006900089832DE730E088E862E0A9010E949A058D
:1006A0009091610083E060E2492F20E00E94C70240
:1006B00029EC30E085E060E24AE001E00E9420029F
:1006C0009091600086E060E2492F20E00E94C7021E
:1006D0006EC00E94FE0284EF91E00E94D9008091DA
:1006E0006700882F90E0883B910541F1883D910596
:1006F00029F08837910509F441C059C08091610003
:100700008F5F80936100809161008C3010F01092B7
:1007100061009091610083E060E2492F20E00E9437
:10072000C702109265001092660010926700109246
:10073000680084EF91E00E94D90039C08091600088
:100740008B5F80936000809160008C3310F010927A
:1007500060009091600086E060E2492F20E00E94F6
:10076000C702109265001092660010926700109206
:10077000680084EF91E00E94D90019C029E830E0B8
:1007800088E862E0A9010E949A059091610083E0E7
:1007900060E2492F21E00E94C7029091600086E04C
:1007A00060E2492F21E00E94C7021982000089817E
:1007B000882309F08ECF0F90CF91DF910F9108958C
:1007C0000F93DF93CF930F92CDB7DEB781E089838C
:1007D00025E730E088E964E0A9010E949A0529EC48
:1007E00030E087E060E34BE001E00E94200290915E
:1007F000630085E060E3492F20E00E94C7026CC0DF
:100800000E94FE0284EF91E00E94D900809167006F
:10081000882F90E0883B910549F1883D910529F0AA
:100820008837910509F443C057C0809163008F5FFA
:100830008093630080916300813518F08EE180938E
:1008400063009091630085E060E3492F20E00E94FF
:10085000C702109265001092660010926700109215
:10086000680084EF91E00E94D90036C08091630057
:10087000815080936300809163008E3118F480E58D
:10088000809363009091630085E060E3492F20E04E
:100890000E94C702109265001092660010926700D5
:1008A0001092680084EF91E00E94D90015C08091F9
:1008B00063008093640021E830E088E964E0A901E6
:1008C0000E949A059091630085E060E3492F21E042
:1008D0000E94C702198200008981882309F090CF05
:1008E0000F90CF91DF910F910895DF93CF930F92E7
:1008F000CDB7DEB7898380E069810E94D60181E0AF
:1009000069810E94D60182E069810E94D60183E05C
:1009100069810E94D60184E069810E94D60185E048
:1009200069810E94D60186E069810E94D60187E034
:1009300069810E94D6010F90CF91DF910895DF93D6
:10094000CF93CDB7DEB79091610083E060E2492F8D
:1009500021E00E94C7029091600086E060E2492F8A
:1009600021E00E94C7029091630085E060E3492F77
:1009700021E00E94C702CF91DF910895DF93CF93CA
:1009800000D0CDB7DEB781E089832CC080E390E052
:10099000FC0180818A838A8184708A838A8188238A
:1009A000C9F482E390E022E330E0F90120812E7F58
:1009B000FC01208389818130A9F480E00E947504C4
:1009C00084E089832DE830E082E864E0A9010E9498
:1009D0009A0508C08981843019F480E00E9475046A
:1009E00087E089838981873089F60F900F90CF91B6
:1009F000DF9108950F93DF93CF93CDB7DEB72DE648
:100A000030E080E964E0A9010E949A0529E830E01D
:100A100088E862E0A9010E949A0521E830E088E9AF
:100A200064E0A9010E949A0525EA30E081E866E0C9
:100A3000A9010E949A0529EC30E085E060E24AE0D5
:100A400001E00E94200229EC30E087E060E34BE007
:100A500001E00E94200229EC30E087E060E14BE0F9
:100A600001E00E942002CF91DF910F910895DF9362
:100A7000CF9300D0CDB7DEB78AE390E02AE330E031
:100A8000F90120812E7FFC0120838BE390E02BE392
:100A900030E0F90120812E7FFC01208380E590E089
:100AA000FC01108287E290E020E4FC01208386E2D2
:100AB00090E020E8FC01208386E290E026E230E02E
:100AC000F90120812064FC012083000086E290E08F
:100AD000FC018081882F90E0807190700097B1F3C5
:100AE00084E290E0FC018081882F90E09A838983E2
:100AF00085E290E0FC018081882F90E0982F882784
:100B000029813A81820F931F9A83898386E290E03C
:100B100026E230E0F90120812061FC01208386E299
:100B200090E0FC01108289819A810F900F90CF9103
:100B3000DF910895DF93CF9300D000D000D0CDB7E0
:100B4000DEB78B836C835E834D838B810E941C0197
:100B5000198210C08981882F90E02D813E81820FFB
:100B6000931FFC0180818A838A810E9464018981AC
:100B70008F5F89838981282F30E08C81882F90E0D6
:100B8000880F991F281739072CF326960FB6F8946B
:100B9000DEBF0FBECDBFCF91DF910895DF93CF931E
:100BA000CDB7DEB76A970FB6F894DEBF0FBECDBFE4
:100BB0006F8B788F898F9A8F80E090E0DC018B8338
:100BC0009C83AD83BE8380E090E0DC018B879C87B3
:100BD000AD87BE8780E090E0A0E8BFEB8F87988B61
:100BE000A98BBA8B6F89788D898D9A8D20E030E042
:100BF00040E85FE30E941B0ADC01CB018B8B9C8BDE
:100C0000AD8BBE8B80E090E0A0E8BFE38F83988738
:100C1000A987BA871A82198252C06B857C858D8517
:100C20009E8520E030E040E85FE30E94EE09DC01B1
:100C3000CB018B879C87AD87BE878F859889A989D3
:100C4000BA89B0588F87988BA98BBA8B6F817885BA
:100C500089859A852B893C894D895E890E944C0A39
:100C6000DC01CB018F839887A987BA876F85788944
:100C700089899A892F81388549855A850E944C0A2D
:100C8000DC01CB01BC01CD012B853C854D855E850A
:100C90000E94460BDC01CB019C01AD016B817C8184
:100CA0008D819E810E94EE09DC01CB018B839C83A8
:100CB000AD83BE8389819A8101969A8389838981D4
:100CC0009A8121E08C3292070CF4A7CF8B819C8112
:100CD000AD81BE81BC01CD016A960FB6F894DEBF2E
:100CE0000FBECDBFCF91DF910895EF92FF920F938A
:100CF0001F93DF93CF93CDB7DEB72C970FB6F89441
:100D0000DEBF0FBECDBF69877A878B879C878091B6
:100D10006300882F90E0AA2797FDA095BA2FBC0109
:100D2000CD010E94F40B9B01AC0160E070E088EC07
:100D300092E40E941B0ADC01CB017C018D0160E082
:100D400070E088EC92E429853A854B855C850E94A9
:100D50001B0ADC01CB019C01AD01C801B7010E9457
:100D6000460BDC01CB0189839A83AB83BC838981E9
:100D70009A81AB81BC81BC01CD010E94CE05DC0112
:100D8000CB01BC01CD0120E030E048E452EC0E94F0
:100D90004C0ADC01CB01BC01CD0120E030E040E891
:100DA00050E40E94EE09DC01CB018D839E83AF836A
:100DB000B8878D819E81AF81B885BC01CD012C960D
:100DC0000FB6F894DEBF0FBECDBFCF91DF911F915C
:100DD0000F91FF90EF900895DF93CF93CDB7DEB7DB
:100DE00069970FB6F894DEBF0FBECDBF1C821B8281
:100DF00082E892EEA7ECBDE38A8B9B8BAC8BBD8B1C
:100E00001B861A861D861C8681E090E09F878E8750
:100E100081E090E0998B888B1092520387E3809356
:100E2000600081E08093610082E380936300F89426
:100E300081E390E021EFFC01208387E390E02FEF36
:100E4000FC01208384E390E027E0FC01208382E31F
:100E500090E022E330E0F90120812E7FFC01208325
:100E60000E94AF000E94300380E991E00E94D90007
:100E70000E94AC0181E00E941C0180E30E941C01E1
:100E80000E94FA0478940E94BE040E94FE0280919F
:100E90006700882F90E0883E910519F1803F910509
:100EA00021F088379105C9F14AC089E590E0FC013D
:100EB000108280E00E94750429EB30E082E864E053
:100EC000A9010E949A051C821B8282E390E022E322
:100ED00030E0F90120812E7FFC0120830E94410334
:100EE0002EC089E590E0FC01108280E00E9475042C
:100EF00021EB30E082E864E0A9010E949A051C829F
:100F00001B8282E390E022E330E0F90120812E7F12
:100F1000FC0120830E94E00312C089E590E024E0F8
:100F2000FC01208380E00E9475041C821B8221EC5E
:100F300030E082E864E0A9010E949A0500008E85F5
:100F40009F8501969F878E878E859F858531910528
:100F500070F10E9437059F8B8E8B8E899F89CC0103
:100F6000A0E0B0E0BC01CD010E94A60CDC01CB01E9
:100F7000BC01CD012A893B894C895D890E944C0ABC
:100F8000DC01CB018E839F83A887B9876E817F8127
:100F9000888599850E94540CDC01CB018D8385E006
:100FA00060E14D8121E00E94C7020E949F04898177
:100FB0009A8101969A83898389819A81F1E08C32A2
:100FC0009F07A0F01A8219828E819F81A885B9851A
:100FD000BC01CD010E947506DC01CB01BC01CD0135
:100FE0000E94540CDC01CB01998B888B80916100AD
:100FF000482F50E08CE390E0489F9001499F300DCE
:10100000589F300D112480916000882F90E0820F4E
:10101000931F998F888F8B819C818130910539F145
:101020008130910528F08230910509F444C08BC0CD
:10103000288D398D8889998982179307B8F080E0C7
:101040000E94750425E930E082E864E0A9010E946D
:101050009A0581E090E09C838B8382E390E022E319
:1010600030E0F90120812160FC0120836CC08A8579
:101070009B8501969B878A878A859B858A30910507
:10108000C8F0909163008D818917A0F082E390E011
:1010900022E330E0F90120812E7FFC0120832DE93D
:1010A00030E082E864E0A9010E949A0582E090E0C5
:1010B0009C838B8348C08A859B8501969B878A8702
:1010C0008C859D8501969D878C878A859B8584313B
:1010D0009105C0F11B861A86909163008D81891756
:1010E00050F082E390E022E330E0F90120812E7F8E
:1010F000FC01208309C082E390E022E330E0F901A3
:1011000020812160FC0120838C859D85843191059F
:1011100058F01D861C8685E390E025E330E0F90158
:1011200020812B7FFC0120838C859D858A30910551
:1011300048F085E390E025E330E0F9012081246068
:10114000FC01208300009FCEA0E0B0E0EAEAF8E0D6
:101150000C94BF0EFC01EA018081823008F438C192
:10116000DB019C91923008F430C1843059F4943002
:1011700009F02EC1918111968C911197981709F061
:1011800021C126C1943009F420C19230B1F48230DB
:1011900009F01EC1CA01AF0128E0DA010D90AD01CE
:1011A000DC010D92CD012150C1F7DB0111968C912C
:1011B00011979181892389830AC1823009F405C17D
:1011C000C280D380DB0112966D907C9013972481AE
:1011D0003581468157811496ED90FD900D911C91BB
:1011E0001797C601861997095C0197FF04C0AA24C6
:1011F000BB24A81AB90AB0E2AB16B1040CF061C066
:10120000181619066CF5370148010A2C04C096948B
:101210008794779467940A94D2F781E090E0A0E0F5
:10122000B0E00A2C04C0880F991FAA1FBB1F0A94A4
:10123000D2F70197A109B1098E219F21A023B123E3
:10124000EE24FF248701E3940097A105B10519F46A
:10125000EE24FF248701E628F728082919293CC035
:101260000097D1F1CA0CDB1C39014A010A2C04C0D9
:1012700096948794779467940A94D2F781E090E0EB
:10128000A0E0B0E00A2C04C0880F991FAA1FBB1F62
:101290000A94D2F70197A109B10982239323A423C9
:1012A000B52321E030E040E050E00097A105B10512
:1012B00019F420E030E0A9012629372948295929C5
:1012C0000BC06C147D0424F4EE24FF24870104C0B9
:1012D000630120E030E0A9018181FB019181891740
:1012E00009F445C0882349F0D801C701821B930B3C
:1012F000A40BB50B9C01AD0104C02E193F09400B96
:10130000510B57FD04C01982DB82CA820BC081E0F9
:101310008983DB82CA8250954095309521953F4F55
:101320004F4F5F4F2C833D834E835F830DC0880FEB
:10133000991FAA1FBB1F8C839D83AE83BF838A81A5
:101340009B8101979B838A838C819D81AE81BF8124
:101350009C01AD0121503040404050402F3FEFEF05
:101360003E07EFEF4E07EFE35E0708F30BC08983FC
:10137000DB82CA822E0D3F1D401F511F2C833D83EF
:101380004E835F8383E088832C813D814E815F8122
:1013900057FF1DC0DA01C90181709070A070B07054
:1013A0005695479537952795822B932BA42BB52BD4
:1013B0008C839D83AE83BF838A819B8101969B83AF
:1013C0008A8305C0EAE4F2E003C0FB0101C0FE012C
:1013D000CF01CDB7DEB7EEE00C94DB0EA0E2B0E0BB
:1013E000E4EFF9E00C94C70E69837A838B839C83C6
:1013F0002D833E834F83588789E0E82EF12CEC0E35
:10140000FD1ECE010196B7010E94460E8E010F5EB1
:101410001F4FCE010596B8010E94460EC701B801C4
:10142000AE01475E5F4F0E94A4080E94780DA0960F
:10143000E6E00C94E30EA0E2B0E0E1E2FAE00C9406
:10144000C70E69837A838B839C832D833E834F836E
:1014500058878E01075F1F4FCE010196B8010E9489
:10146000460E91E1E92EF12CEC0EFD1ECE01059603
:10147000B7010E94460E8A8991E089278A8BC801AC
:10148000B701AE01475E5F4F0E94A4080E94780D2D
:10149000A096E6E00C94E30EA0E2B0E0E2E5FAE00C
:1014A0000C94BB0E69837A838B839C832D833E834C
:1014B0004F835887CE010196BE01675F7F4F0E9420
:1014C000460ECE010596BE016F5E7F4F0E94460E0E
:1014D0009985923078F089898230C0F0943019F47F
:1014E000823041F4CBC0843019F4923079F4C6C014
:1014F000923051F481E02A859A89291709F480E015
:101500008A87CE010996BCC0823051F481E02A85D9
:101510009A89291709F480E08A8BCE014196B0C0E0
:101520006D847E848F849888ED88FE880F89188D5D
:10153000E0E2F0E080E090E0DC01AA24BB24650159
:1015400020E030E0A901B301617070706115710590
:10155000D1F02E0D3F1D401F511F15012601280EF1
:10156000391E4A1E5B1E81E090E0A0E0B0E02E151F
:101570003F054007510718F080E090E0DC01820D44
:10158000931DA41DB51DAA0CBB1CCC1CDD1C17FF94
:1015900009C061E0262E312C412C512CA228B32801
:1015A000C428D528319749F0EE0CFF1C001F111FED
:1015B0009694879477946794C6CF6B897C89EB85E2
:1015C000FC856E0F7F1F6E5F7F4F7C8F6B8F61E09E
:1015D000EA857A89E71709F460E06A8F6B8D7C8D64
:1015E00010C0FC01E170F070309729F056954795D6
:1015F000379527955068B695A795979587956F5F0E
:101600007F4FB7FDEECF0CC0880F991FAA1FBB1FDD
:1016100057FD8160220F331F441F551F61507040DA
:101620008030E0E09E07E0E0AE07E0E4BE0760F354
:101630006B8F7C8F6FE7E62EF12C012D112DE822A8
:10164000F9220A231B2360E4E616F10401051105C3
:1016500061F487FD0AC0211531054105510529F0C6
:10166000805C9F4FAF4FBF4F80788D8F9E8FAF8F25
:10167000B8A383E0898FCE01499602C08AE492E044
:101680000E94780DA096E2E10C94D70EA8E1B0E09C
:10169000ECE4FBE00C94C30E69837A838B839C8318
:1016A0002D833E834F8358878E01075F1F4FCE01E6
:1016B0000196B8010E94460E81E1E82EF12CEC0E55
:1016C000FD1ECE010596B7010E94460E9985923007
:1016D00008F483C08989823008F47BC02A853A895E
:1016E00023272A87943011F0923021F4981709F0BB
:1016F0006CC071C0843039F41D861E861F86188A1E
:101700001C861B866AC0823019F484E0898765C014
:101710008B859C852B893C89821B930B9C878B87AF
:101720002D853E854F855889ED88FE880F89188D57
:101730002E153F054007510738F4220F331F441F71
:10174000551F01979C878B876FE170E0A12CB12C0E
:10175000C12CA0E4DA2E80E090E0DC012E153F05DC
:101760004007510740F08A299B29AC29BD292E1931
:101770003F09400B510BD694C794B794A794220FFE
:10178000331F441F551F6150704041F76FE7E62E2D
:10179000F12C012D112DE822F9220A231B2360E4EC
:1017A000E616F1040105110561F487FD0AC0211553
:1017B00031054105510529F0805C9F4FAF4FBF4F68
:1017C00080788D879E87AF87B88B8E01075F1F4F0C
:1017D00004C0870102C00AE412E0C8010E94780D2B
:1017E0006896EAE00C94DF0EA8E0B0E0EAEFFBE0D8
:1017F0000C94C70E7B018C0183E08983D801C7015B
:101800008827B7FD83959927AA27BB27282F8A8386
:10181000E114F1040105110519F482E0898337C050
:101820008EE190E09C838B83222389F080E0E81690
:1018300080E0F80680E0080780E8180769F1109555
:101840000095F094E094E11CF11C011D111DED8246
:10185000FE820F831887C801B7010E941E0D9C01EC
:10186000215030401216130694F4022E04C0EE0CE0
:10187000FF1C001F111F0A94D2F7ED82FE820F8316
:1018800018878EE190E0821B930B9C838B83CE01A3
:1018900001960E94780D04C060E070E080E09FEC4B
:1018A0002896E6E00C94E30EACE0B0E0EAE5FCE05C
:1018B0000C94CB0E69837A838B839C83CE01019633
:1018C000BE016B5F7F4F0E94460E8D81823081F199
:1018D000823070F1843021F48E81882369F10AC04E
:1018E0002F81388537FD24C06E812F3131053CF0C2
:1018F000662311F120E030E040E050E821C08EE1A5
:1019000090E0821B930B29853A854B855C8504C04A
:1019100056954795379527958A95D2F7662381F096
:1019200050954095309521953F4F4F4F5F4F08C0E0
:1019300020E030E0A90104C02FEF3FEF4FEF5FE759
:10194000B901CA012C96E2E00C94E70EA8E0B0E0E1
:10195000ECEAFCE00C94C50E7B018C011A82611547
:1019600071058105910519F482E089835FC083E0E8
:1019700089838EE1C82ED12CDC82CB82ED82FE825F
:101980000F831887C801B7010E941E0DFC01319713
:10199000F7FF3AC0AA27BB27AE1BBF0B21E030E000
:1019A00040E050E00A2E04C0220F331F441F551F91
:1019B0000A94D2F721503040404050402E213F2120
:1019C0004023512361E070E080E090E02115310573
:1019D0004105510519F460E070E0CB0104C0169593
:1019E0000795F794E794AA95D2F7E62AF72A082BE9
:1019F000192BED82FE820F8318878EE190E08E1BFB
:101A00009F0B9C838B8312C0309781F00E2E04C0F5
:101A1000EE0CFF1C001F111F0A94D2F7ED82FE820C
:101A20000F831887CE1ADF0ADC82CB82CE010196A3
:101A30000E94780D2896E8E00C94E10EAF92BF92D8
:101A4000CF92DF92EF92FF920F931F937B018C0155
:101A500080E0E81680E0F80681E0080780E01807DB
:101A600058F4EFEFEE16F1040105110509F090F4BA
:101A700080E090E0DC0117C0F0E0EF16F0E0FF0638
:101A8000F0E00F07F1E01F0750F480E190E0A0E0E4
:101A9000B0E009C088E090E0A0E0B0E004C088E1D8
:101AA00090E0A0E0B0E020E230E040E050E0281B11
:101AB000390B4A0B5B0B5701680104C0D694C794DD
:101AC000B794A7948A95D2F7D601C5018E5A9D4F37
:101AD000FC018081281B310941095109C9011F916D
:101AE0000F91FF90EF90DF90CF90BF90AF9008954F
:101AF000EF92FF920F931F93CF93DF93FC0124810A
:101B000035814681578161818081823020F4406136
:101B1000EFEFF0E0A3C0843009F49BC0823009F4F9
:101B200092C0211531054105510509F48FC002808D
:101B3000F381E02D8FEFE238F8070CF05AC0C2E8CD
:101B4000DFEFCE1BDF0BCA31D1056CF579018A01BD
:101B50000C2E04C016950795F794E7940A94D2F7D3
:101B600081E090E0A0E0B0E00C2E04C0880F991F47
:101B7000AA1FBB1F0A94D2F70197A109B1098223BA
:101B80009323A423B52321E030E040E050E0009708
:101B9000A105B10519F420E030E0A9012E293F2963
:101BA000402B512B03C020E030E0A901DA01C9012C
:101BB0008F779070A070B07080349105A105B10549
:101BC00039F427FF09C0205C3F4F4F4F5F4F04C0DF
:101BD000215C3F4F4F4F5F4FE1E0F0E0203080E06D
:101BE000380780E0480780E4580728F5E0E0F0E097
:101BF00022C0E038F1056CF5E158FF4FDA01C90168
:101C00008F779070A070B07080349105A105B105F8
:101C100039F427FF09C0205C3F4F4F4F5F4F04C08E
:101C2000215C3F4F4F4F5F4F57FF05C0569547957B
:101C300037952795319687E056954795379527959F
:101C40008A95D1F70BC0E0E0F0E005C0E0E0F0E0FD
:101C500005C0EFEFF0E020E030E0A9018E2F87957E
:101C600088278795942F9F77679566276795E695D0
:101C7000E22EA92FA82BFE2FF62B622F732F8A2F6F
:101C80009F2FCDB7DEB7E6E00C94E30EDC01FB013D
:101C90002C9111963C91119712968C911297482F86
:101CA0004F7750E0982F991F9927991F13966C91A1
:101CB0001397862F880F892B90E0661F6627661F73
:101CC0006183009739F5211531054105510511F45E
:101CD00082E029C082E89FEF9383828367E0220F2E
:101CE000331F441F551F6A95D1F783E0808309C0D5
:101CF000220F331F441F551F8281938101979383C5
:101D00008283203080E0380780E0480780E458076D
:101D100078F320C08F3F910579F4211531054105F5
:101D2000510519F484E08083089544FF03C081E0E5
:101D3000808310C010820EC08F579040938382839F
:101D400083E0808387E0220F331F441F551F8A954D
:101D5000D1F7506424833583468357830895991BB4
:101D600079E004C0991F961708F0961B881F7A9592
:101D7000C9F7809508952F923F924F925F926F928C
:101D80007F928F929F92AF92BF92CF92DF92EF920B
:101D9000FF920F931F93CF93DF93CDB7DEB7CA1B8C
:101DA000DB0B0FB6F894DEBF0FBECDBF09942A88B7
:101DB000398848885F846E847D848C849B84AA845F
:101DC000B984C884DF80EE80FD800C811B81AA81EC
:101DD000B981CE0FD11D0FB6F894DEBF0FBECDBFB7
:081DE000ED010895F894FFCF16
:101DE80028010032320101010100000000B5B1C72D
:101DF800B0CEC2B6C8CEC2B6C8C9E8D6C3B6A8CA9D
:101E0800B1C9E8B6A8CEC2B6C8D3E0CAB1B9FDC157
:101E1800F7A1A3A1A3BCD3CEC2D6D0A1A3B1A3CE10
:101E2800C2D6D0A1A3D5C5B6ABB1CFD2B5C9E8BC8F
:101E3800C6CEC2B6C8C9E8B6A8B6A8CAB1C9E8B677
:101E4800A8B5C8B4FDBCD3CEC200001FF02FE8303F
:101E580018301830183018200800002008301830C2
:101E680018301830182FE81FF00000000000080094
:101E780018001800180018000800000008001800D2
:101E880018001800180008000000001FF00FE800F4
:101E9800180018001800180FE81FF02FE030003065
:101EA80000300030002FE01FF000001FF00FE800A6
:101EB800180018001800180FE81FF00FE8001800A5
:101EC80018001800180FE81FF00000000020083064
:101ED800183018301830182FE81FF00FE8001800D5
:101EE80018001800180008000000001FF02FE0304C
:101EF800003000300030002FE01FF00FE80018001D
:101F080018001800180FE81FF000001FF02FE0302D
:101F1800003000300030002FE01FF02FE83018307C
:101F280018301830182FE81FF000001FF00FE800D5
:101F38001800180018001800080000000800180011
:101F480018001800180008000000001FF02FE830E3
:101F5800183018301830182FE81FF02FE8301830D4
:101F680018301830182FE81FF000001FF02FE83045
:101F7800183018301830182FE81FF00FE800180034
:101F880018001800180FE81FF000000000000000FB
:101F9800000000000006000F000F00060000000609
:101FA800000F000F00060000000000000E1F11398E
:101FB800B171B161B1601E600E60006000600070B8
:101FC8000070803F801F000000000000000000003B
:101FD80000000001020203030303040404040404D0
:101FE800040405050505050505050505050505059B
:101FF800050506060606060606060606060606067B
:102008000606060606060606060606060606060668
:10201800060607070707070707070707070707074A
:102028000707070707070707070707070707070738
:102038000707070707070707070707070707070728
:102048000707070707070707070707070707070718
:1020580007070808080808080808080808080808FA
:1020680008080808080808080808080808080808E8
:1020780008080808080808080808080808080808D8
:1020880008080808080808080808080808080808C8
:1020980008080808080808080808080808080808B8
:1020A80008080808080808080808080808080808A8
:1020B8000808080808080808080808080808080898
:1020C8000808080808080808080808080808080888
:0220D8000808F6
:00000001FF
