:10000300B7C2D5E6C4A3D0CDB2E2CAD4D1DDCABE4D
:1000130000B7C9C9E4B0D7C2B9D1A9C1ACCCECA36C
:10002300AC00D0A6CAE9C9F1CFC0D2D0B1CCD4A715
:10003300A1A300D7D4B9C5D3A2D0DBB6E0C6E6D21C
:10004300DDA3AC00BDF0C0CFBBD3BAC1BEA1CAB95A
:10005300C8BBA1A300C0EEB0D7B3CBD6DBBDABD337
:10006300FBD0D0A3AC00BAF6CEC5B0B6C9CFCCA4F2
:10007300B8E8C9F9A1A300CCD2BBA8CCB6CBAEC912
:10008300EEC7A7B3DFA3AC00B2BBBCB0CDF4C2D7FD
:10009300CBCDCED2C7E9A1A300D5E2CAC7CED2B594
:1000A300C43132382A3634D2BA00BEA7CFD4CABE3E
:1000B300B2E2CAD4B3CCD0F2A3AC0077656C636F61
:1000C3006D6520746F20636F6D6D7500BDF1CCECB1
:1000D300B5C4CAB5CAB1CEC2B6C8A3BA00BDD3CAE5
:1000E300D5B5BDB4AEBFDAD0C5CFA2A3BA004545DE
:1000F30050524F4DB6C1C8A1D6D0A1ADA1AD00B6E7
:10010300C1C8A1B5C4454550524F4DCEAAA3BA00AC
:1001130000000000000000000000000000000000DC
:1001230000000000000000000000000000000000CC
:100133003FFFFFFFFFFFFFFFFFFFFFFFFFFFFFFC8F
:100143002000000000000000000000000000000488
:100153002000000000000000000000000000000478
:10016300207FFFFFFFFFFFFFFFFFFFFFFFFFF804FD
:1001730020400060000000000000000000000804B0
:10018300204000F800000000000000000000080408
:10019300204001F8000700000003C000000F08041E
:1001A300204001F800078E00001FE000007FC80414
:1001B300204001F8003FFF00003FC00003FFC804D8
:1001C300204C0370003F1F00001F00001FFFC804E6
:1001D30020473F70003E0E00000E00007FE0080441
:1001E3002047EE7000371C00001C0003FFC008040A
:1001F3002043CE70000733F0003DE003FFC0080446
:100203002043CE70000FFFF0001FF001F9FE080439
:100213002043CE70001FFF00001FC000F1FE080442
:100223002043DE70003DE700007F000001FF08046B
:100233002043DE70007D870003FE000001FF0804F9
:1002430020439E7000FC070003FF000001CE08045A
:1002530020478E7001FE070000FF800001C00804E4
:1002630020478C7003DE07000039E00001C008045A
:1002730020478070001E07000038F00001C008040A
:1002830020430070001E07000078780001C00804B6
:1002930020400070001C670000F03F0001C008040C
:1002A30020400078001C3F0001E03FC001E008044B
:1002B300204000F8000C1F0007800FE001E0080455
:1002C3002040007800000E00000007E001E0080471
:1002D30020400038000000000000000000E0080497
:1002E300207FFFFFFFFFFFFFFFFFFFFFFFFFF8047C
:1002F30020000000000000000000000000000004D7
:1003030020000000000000000000000000000004C6
:1003130020000000000000000000000000000004B6
:1003230020000000000000000000000000000004A6
:100333002000000000000000000000000000000496
:100343002000000000000000000000000000000486
:1003530023FFFFFFFFFFFFFFFFFFFFFFFFFFFFC4C1
:100363002200000000000000000000000000004424
:100373002200000000000000000000000000004414
:100383002200000000000000000000000000004404
:1003930022000000000000000000000000000044F4
:1003A30022000000000000000000000000000044E4
:1003B30022000000000000000000000000000044D4
:1003C30023FFFFFFFFFFFFFFFFFFFFFFFFFFFFC451
:1003D30020000000000000000000000000000004F6
:1003E30020000000000000000000000000000004E6
:1003F3002000000003C210040010040000000004E9
:10040300200000007C027E3FCF9004000000000427
:10041300200000000885102040107FC00000000469
:10042300200000003F0F2020403E44400000000415
:10043300200000000402443FCFD2444000000004E7
:100443002000000008847E200212444000000004C3
:10045300200000003FCF283FC5127FC000000004EA
:10046300200000001500283048920400000000041A
:100473002000000024832A504FA20400000000043F
:1004830020000000444C4A5048440400000000048B
:10049300200000009C218E9FC09C040000000004EB
:1004A3002000000000000000000000000000000425
:1004B3002000000000000000000000000000000415
:1004C3002000000000000000000000000000000405
:1004D30020000000000000000000000000000004F5
:1004E3003FFFFFFFFFFFFFFFFFFFFFFFFFFFFFFCDC
:1004F30000000000000000000000000000000000F9
:1005030000000000000000000000000000000000E8
:1005130000000000000000000000000000000000D8
:1005230000000000000000000000000000000000C8
:1005330000300000C0000000000060000600000062
:10054300003003FF80C1800300FE6030060000001E
:100553000FFFE03000DFF803006DE6318600000096
:1005630000300063818300FFF86DEC3186000000EA
:10057300003800C701B660C3186DEC318600000077
:10058300007C01FC036660C3187F6C3186000000A9
:1005930000FC0038C3EC30C3186F6C3186000000D8
:1005A30000F600E0C0CFF0C3186F7831860000007A
:1005B30001B303FFE0C6D8FFF87C6031860000007A
:1005C300033180DB6186C0C3186C70318600000084
:1005D3000630C0D983FEC0C3186CF031860000001A
:1005E3000FFFE199C386D8C3186ED8318600000087
:1005F30000300318C00CD8C3187D8C61860000003E
:100603000030031860FCD8C318EF0C60060000002C
:100613000030067863B8F8FFF80E066006000000A5
:1006230000000000000000000000000000000000C7
:10063300000000030000001800000000000000009C
:10064300061F818301F800D80C360000000000006B
:10065300071980C30063F8D86C37FE000000000060
:1006630003198003006619FF6C3780000000000047
:1006730000318003006619986C6D80000000000053
:100683000F31E38303FE19FFEC6D800000000000CF
:100693000300C1FFF06618186CEDFC0000000000B9
:1006A300033FC18300F618186CF9800000000000B6
:1006B3000318C18301FE18FF6C6180000000000075
:1006C3000319818301EE1999EC6180000000000099
:1006D300030D818303661999EC61803C00000000DF
:1006E300030F018300661999EC61FE6C00000000A2
:1006F30003C701B3006619998C61806C0000000088
:10070300039D81E30063F9998C61806C0000000014
:100713000070E0C30060019F780180380000000092
:1007230000000000000000000000000000000000C6
:1007330000000000000000000000000000000000B6
:1007430000000000000000000000000000000000A6
:100753000000000000000000000000000000000096
:100763000000000000000000000000000000000086
:100773000000000000000000000000000000000076
:100783000000000000000000000000000000000066
:100793000000000000000000000000000000000056
:1007A3000000000000000000000000000000000046
:1007B3000000000000000000000000000000000036
:1007C3000000000000000000000000000000000026
:1007D3000000000000000000000000000000000016
:1007E3000000000000000000000000000000000006
:1007F30000000000000000000000000000000000F6
:1008030000000000000000000000000000000000E5
:1008130000000000000006000001FF00003FE000B0
:10082300000001E3C78F0FF8F1E1831E3C30600045
:10083300000003366CD998C19B3183336630600066
:10084300000003366CD998C19B31FF3366306000DA
:10085300000000666CD98FF99B318306663FE00088
:10086300000000C66CCF8CC199F1830C6630600028
:10087300000001866CC18CC19831FF18663060009E
:10088300000003066CCD9FFD99B183306630600094
:10089300000003F3C78F00C0F1E3033F3C30600067
:1008A30000000000000000C000030300003FE00060
:1008B30000000000000000C000060E000000000061
:1008C3000000000000000000000000000000000025
:1008D3000000000000000000000000000000000015
:1008E3000000000000000000000000000000000005
:1008F30000000000000000000000000000000000F5
:1009030000000000000000000000000000000000E4
:10091300BBB6D3ADCAB9D3C3B1BEB2FAC6B7A3ACE3
:10092300B1BECFB5CDB3CAC7BBF9D3DAB8DFBFC643
:10093300BCBCB2FAC6B7A1A3CFB5CDB3BEDFD3D08B
:10094300CBC4B8F6CBABCFF2BFDAA3ACCAE4C8EBE7
:10095300CAE4B3F6B5E7C1F7B4F3A3ACB7C0C0D7E5
:10096300BBF7A3ACBFB9BBF7B4F2C4DCC1A6C7BF26
:10097300A3ACBCAFB3C9C8ABC7F2CEC0D0C7B6A88F
:10098300CEBBCFB5CDB3CAC7D2BBBFEEB2BBBFC917
:10099300B6E0B5C3B5C4C9F1C6E6B2FAC6B7A1A3FA
:1009A300D7DFC2B7A3ACC7A7CDF2B2BBD2AAB4ED0F
:1009B300A3ACBECDCFF1D2BBD5C5D5C5A1A2D2BB09
:1009C300B2E3B2E3CEDED0CEB5C4CDF8A3ACCEDE77
:1009D300C2DBC4E3B5C4C8CBC9FACAC7C3A6C2B590
:1009E300B5C4A3ACBBB9CAC7BFECC0D6B5C4A1A339
:1009F300CBFCD7DCBBE1D4DAC4B3B8F6B2BBBEAD33
:100A0300D2E2BCE4BDABC4E3D5D6A1A3D2AAC3B49E
:100A1300B3E5C6C6CBFCA3ACD2AAC3B4B1BBB2F890
:100A2300C8C6A1A3C8CBC9FAC4D1C3E2BCC5C4AF6D
:100A3300A1A3D6BBC4DCB8D0CEF2A1A3D6BBD3D07E
:070A4300C3E6B6D4A1A30035
:10118400015200015180015300C101C1802030216E
:10119400202020202020202020202020202020204B
:1011A400202020202020202020202020202020203B
:1011B400202020202020202020202020202020202B
:041267007F147E0072
:10126B00D3EF9400EE940040147D6E7C00ED1D7066
:0D127B00011CED4C70F7EF1F70E61E80E3C4
:011288002243
:1012A800C2A17F017E001212B98D80D2A27F0A7E70
:0112B8000035
:0A12B900EF1F70011E144E70F722A3
:0D128900E5154480FF121296E5164480FF23
:10129600AD07C2A2C2A01212A8C2A27F017E00029E
:0212A60012B97B
:1012DE007580FFC2A2D2A0D2A17F017E001212B9E8
:0712EE001212B3AF80C2A28F
:0112F50022D6
:0912C30014F5828E831211C5FF9F
:1012CC00AD07C2A2D2A01212A8C2A27F017E000258
:0212DC0012B945
:040F1A008D1BA9077B
:100F1E00AA01EA1313543FF92004036303FFE51BF0
:100F2E00C39420400A74E0251BF51B740829F9E5CB
:100F3E001B4480FF121296E94480FF121296121281
:100F4E00DE1212DE8F1C1212DE8F1D530203EA70A8
:100F5E000BEBC454F0FFE51C540F800BBA010EEBE3
:100F6E00540FFFE51C54F04FFCF51C8019EBBA0230
:100F7E000AC454F0FFE51D540F8007540FFFE51D02
:100F8E0054F04FFCF51DE51B4480FF121296E94408
:0F0F9E0080FF121296AF1C1212CCAF1D0212CCA4
:1011F2007F301212967F0C1212967F011212967F86
:10120200021212967F801212967F041212967F0C9F
:081212001212967F01021296F0
:0F113E00F9E4350BFAE9250EF9EA350DFA7D08CB
:08114D008D118B128A13891425
:10115500121296E4F515E51175F002A4FFC3E51525
:101165009FE5F06480F87480985013AB12AA13A918
:0E117500148515827583001212C8051580D8E6
:011183002249
:081242008D178B188A19891A17
:10124A00121296E4FCECC395175011AB18AA19A90F
:0C125A001A8C827583001212C80C80E907
:011266002265
:101096007F341212963002057F36121296E4FBE474
:1010A600FCEB4480FF121296EC4480FF121296E489
:1010B600FF1212CCE4FF1212CC0CBC08E40BBB20CE
:1010C600DEE4FB7C08EB4480FF121296EC4480FFC2
:1010D600121296E4FF1212CCE4FF1212CC0CBC10D2
:0A10E600E40BBB20DE7F36021296F9
:100A4A00E4F513F5147F341212963003057F36123B
:100A5A001296E50EC394204003020B1AE50FC394C5
:100A6A00204003020B1A850E15E50F2401FFE4331B
:100A7A00FEC3E5159FEE6480F87480984003020D6A
:100A8A0026850C16E50D2401FFE433FEC3E5169F07
:100A9A00EE6480F8748098507212128930022DAB7D
:100AAA0010AA11A9120514E514AE13700205131247
:100ABA0012C3AB10AA11A9120514E514AE137002E1
:100ACA00051314F5828E831211C58036AB10AA1154
:100ADA00A9120514E514AE137002051314F5828EDB
:100AEA00831211C5F4FF1212CCAB10AA11A9120578
:100AFA0014E514AE137002051314F5828E831211D5
:100B0A00C5F4FF1212CC0516020A8E0515020A73E5
:100B1A00E50EC394204003020C6CE50F941F5003AA
:100B2A00020C6C850E15E515C394204003020BC90F
:100B3A00850C16E50D2401FFE433FEC3E5169FEE8E
:100B4A006480F8748098507212128930022DAB10AA
:100B5A00AA11A9120514E514AE1370020513121294
:100B6A00C3AB10AA11A9120514E514AE137002053D
:100B7A001314F5828E831211C58036AB10AA11A9FF
:100B8A00120514E514AE137002051314F5828E8350
:100B9A001211C5F4FF1212CCAB10AA11A912051436
:100BAA00E514AE137002051314F5828E831211C573
:100BBA00F4FF1212CC0516020B3D0515020B30E4A8
:100BCA00F515E50F24E1FFE515C39F4003020D2645
:100BDA00E50C2408F516E50D2409FFE433FEC3E508
:100BEA00169FEE6480F8748098507212128930024F
:100BFA002DAB10AA11A9120514E514AE1370020543
:100C0A00131212C3AB10AA11A9120514E514AE13DC
:100C1A007002051314F5828E831211C58036AB104B
:100C2A00AA11A9120514E514AE137002051314F5DE
:100C3A00828E831211C5F4FF1212CCAB10AA11A92D
:100C4A00120514E514AE137002051314F5828E838F
:100C5A001211C5F4FF1212CC0516020BE00515029B
:100C6A000BCCE50ED3941F5003020D26E50FD39447
:100C7A001F5003020D26E50E24E1F515E50F24E1C8
:100C8A00FFE515C39F4003020D26E50C2408F5165F
:100C9A00E50D2409FFE433FEC3E5169FEE6480F8F0
:100CAA00748098507212128930022DAB10AA11A9C1
:100CBA00120514E514AE13700205131212C3AB1019
:100CCA00AA11A9120514E514AE137002051314F53E
:100CDA00828E831211C58036AB10AA11A91205148F
:100CEA00E514AE137002051314F5828E831211C532
:100CFA00F4FF1212CCAB10AA11A9120514E514AE16
:100D0A00137002051314F5828E831211C5F4FF12B3
:100D1A0012CC0516020C9A0515020C867F361212A1
:060D2A00967F30021296D4
:1012F600438920759850438780758DFD758BFDD287
:061306008ED2ACD2AF2232
:10121A00AF511212960551E551B48803755190E504
:10122A0051B49703755188E551B48F03755198E508
:08123A0051B4A003755180229C
:1010F000AC05A9077F36121296ECC394205018EC69
:101100004480FF121296E94480FF121296AF031238
:1011100012CCAF111212CCECC39420401CEC24E092
:101120004480FF121296E924084480FF121296AF01
:0E113000031212CCAF111212CC7F30021296B5
:100D3000D202D203E4F50C750D07F50E750F3F7561
:100D400010FF751101751213120A4AC2A07FE87EC6
:100D50000312126B7F36121296D2A0E4F509F50841
:100D6000C374079508FF7401A807088002C333D82D
:100D7000FC4209750B267510008509117B227A004B
:100D8000AD0BE4FF1210F0050BE50BC3942A40E60F
:100D90001212670508E508C3940840C4750801E409
:100DA000F509F50AC37407950AFF7401A8070880BE
:100DB00002C333D8FC4209750B26E509FB7A00E42F
:100DC000F510F511AD0BAF081210F0050BE50BC3D4
:100DD000942A40E6121267050AE50AC3940840C443
:100DE000E4F509F50AC37407950AFF7401A807081A
:100DF0008002C333D8FC4209750B267510008509A3
:100E0000117BFF7A00AD0BAF081210F0050BE50B5C
:100E1000C3942A40E6121267050AE50AC394084003
:100E2000C40508E508C394075003020D9FE4F509C3
:100E3000F50AC37407950AFF7401A807088002C366
:100E400033D8FC4209750B26E509FB7A00751000C2
:100E5000751144AD0B7F071210F0050BE50BC39421
:100E60002A40E5121267050AE50AC3940840C37FC9
:040E700030021296A4
:0A0E74008E088F098B0A8A0B890C87
:100E7E000509E50970020508E4F50DF50EC3E50E4A
:100E8E009440E50D94014003020F1985080F850962
:100E9E00102001777F01121296AB0AE50C250EF990
:100EAE00E50B350DFA7D087F8012114DAB0AE50C6E
:100EBE0024107F9012113EAB0AE50C24207F88127D
:100ECE00113EAB0AE50C2430F9E4350BFAE9250E98
:100EDE00F9EA350DFA7D087F9812114DE5101510BF
:100EEE00AE0F7002150F4E6014E4FFFE20010B0FC3
:100EFE00BF00010EEF64644E70F23001DF744025C6
:0B0F0E000EF50EE4350DF50D020E8B04
:010F190022B5
:08130C008F993099FDC299226E
:101039001212F61211F2D202121096120D30D202C9
:10104900C203E4F50C750D07F50E750F3F7510FF1A
:10105900751105751213120A4A7FD07E0712126B99
:101069007F011212967F301212967BFF7A00790364
:101079007D087F9012114D7FE87E0312126B7BFF72
:0D1089007A0979137F107E27120E7480DD26
:03000000020FAD3F
:0C0FAD00787FE4F6D8FD758153020FF444
:1011C500BB010CE58229F582E5833AF583E02250DF
:1011D50006E92582F8E622BBFE06E92582F8E22229
:0D11E500E58229F582E5833AF583E4932243
:100FB900021039E493A3F8E493A34003F68001F205
:100FC90008DFF48029E493A3F85407240CC8C33339
:100FD900C4540F4420C8834004F456800146F6DF08
:100FE900E4800B0102040810204080901184E47E03
:100FF900019360BCA3FF543F30E509541FFEE493FD
:10100900A360010ECF54C025E060A840B8E493A3C3
:10101900FAE493A3F8E493A3C8C582C8CAC583CAEE
:10102900F0A3C8C582C8CAC583CADFE9DEE780BEA6
:0111C400002A
:00000001FF
